:020000040800F2
:10000000005000209D120008ED120008ED120008BB
:10001000ED120008ED120008ED12000800000000CB
:10002000000000000000000000000000ED120008C9
:10003000ED12000800000000ED1200082510000875
:10004000ED120008ED120008ED120008ED12000894
:10005000ED120008ED120008250C0008410C000804
:100060005D0C0008790C0008950C0008ED120008E2
:10007000ED120008ED120008ED120008ED12000864
:10008000ED120008ED120008FD0B0008ED1200084B
:10009000ED120008ED120008ED120008B10C000886
:1000A000ED120008ED120008ED120008ED12000834
:1000B000B5090008ED120008ED120008ED12000865
:1000C000ED120008ED120008ED120008ED12000814
:1000D000ED1200088910000835110008E111000830
:1000E0000D0D0008ED12000800000000ED120008E0
:1000F000ED120008ED120008ED120008ED120008E4
:10010000ED120008ED120008ED120008ED120008D3
:10011000ED120008ED120008ED120008ED120008C3
:10012000ED120008ED120008ED120008ED120008B3
:1001300010B5054C237833B9044B13B10448AFF321
:1001400000800123237010BD0C000020000000007F
:100150003813000808B5034B1BB103490348AFF33C
:10016000008008BD000000001000002038130008C7
:1001700081F0004102E000BF83F0004330B54FEA58
:1001800041044FEA430594EA050F08BF90EA020FC5
:100190001FBF54EA000C55EA020C7FEA645C7FEA58
:1001A000655C00F0E2804FEA5454D4EB5555B8BF7B
:1001B0006D420CDD2C4480EA020281EA030382EAEC
:1001C000000083EA010180EA020281EA0303362D7E
:1001D00088BF30BD11F0004F4FEA01314FF4801C51
:1001E0004CEA113102D0404261EB410113F0004F63
:1001F0004FEA03334CEA133302D0524263EB43031A
:1002000094EA050F00F0A780A4F10104D5F1200EB7
:100210000DDB02FA0EFC22FA05F2801841F1000112
:1002200003FA0EF2801843FA05F359410EE0A5F1E6
:1002300020050EF1200E012A03FA0EFC28BF4CF017
:10024000020C43FA05F3C01851EBE37101F00045CD
:1002500007D54FF0000EDCF1000C7EEB00006EEBDA
:100260000101B1F5801F1BD3B1F5001F0CD3490864
:100270005FEA30004FEA3C0C04F101044FEA4452BB
:1002800012F5800F80F09A80BCF1004F08BF5FEA42
:10029000500C50F1000041EB045141EA050130BD22
:1002A0005FEA4C0C404141EB0101013C28BFB1F534
:1002B000801FE9D291F0000F04BF01460020B1FA7F
:1002C00081F308BF2033A3F10B03B3F120020CDA52
:1002D0000C3208DD02F1140CC2F10C0201FA0CF030
:1002E00021FA02F10CE002F11402D8BFC2F1200C95
:1002F00001FA02F120FA0CFCDCBF41EA0C0190404B
:10030000E41AA2BF01EB0451294330BD6FEA040493
:100310001F3C1CDA0C340EDC04F11404C4F120027E
:1003200020FA04F001FA02F340EA030021FA04F390
:1003300045EA030130BDC4F10C04C4F1200220FAE7
:1003400002F001FA04F340EA0300294630BD21FA25
:1003500004F0294630BD94F0000F83F4801306BFEB
:1003600081F480110134013D4EE77FEA645C18BFDF
:100370007FEA655C29D094EA050F08BF90EA020F76
:1003800005D054EA000C04BF1946104630BD91EA6E
:10039000030F1EBF0021002030BD5FEA545C05D171
:1003A0004000494128BF41F0004130BD14F58004B0
:1003B0003CBF01F5801130BD01F0004545F0FE4124
:1003C00041F470014FF0000030BD7FEA645C1ABF59
:1003D000194610467FEA655C1CBF0B46024650EA90
:1003E000013406BF52EA033591EA030F41F40021BC
:1003F00030BD00BF90F0000F04BF0021704730B542
:100400004FF4806404F132044FF000054FF0000116
:1004100050E700BF90F0000F04BF0021704730B5D7
:100420004FF4806404F1320410F0004548BF4042AC
:100430004FF000013EE700BF42004FEAE2014FEA01
:1004400031014FEA02701FBF12F07F4393F07F4FDC
:1004500081F06051704732F07F4208BF704793F0DF
:100460007F4F04BF41F40021704730B54FF46074F2
:1004700001F0004521F000411CE700BF50EA0102F5
:1004800008BF704730B54FF000050AE050EA01029E
:1004900008BF704730B511F0004502D5404261EB0E
:1004A00041014FF4806404F132045FEA915C3FF44F
:1004B000D8AE4FF003025FEADC0C18BF03325FEAEC
:1004C000DC0C18BF033202EBDC02C2F1200300FA9D
:1004D00003FC20FA02F001FA03FE40EA0E0021FAC2
:1004E00002F11444BDE600BF70B54FF0FF0C4CF4B0
:1004F000E06C1CEA11541DBF1CEA135594EA0C0F62
:1005000095EA0C0F00F0DEF82C4481EA030621EA9C
:100510004C5123EA4C5350EA013518BF52EA0335D7
:1005200041F4801143F4801338D0A0FB02CE4FF089
:100530000005E1FB02E506F00042E0FB03E54FF0B9
:100540000006E1FB03569CF0000F18BF4EF0010EB1
:10055000A4F1FF04B6F5007F64F5407404D25FEAAD
:100560004E0E6D4146EB060642EAC62141EA555160
:100570004FEAC52040EA5E504FEACE2EB4F1FD0CA2
:1005800088BFBCF5E06F1ED8BEF1004F08BF5FEA20
:10059000500E50F1000041EB045170BD06F00046D2
:1005A00046EA010140EA020081EA0301B4EB5C047F
:1005B000C2BFD4EB0C0541EA045170BD41F4801177
:1005C0004FF0000E013C00F3AB8014F1360FDEBF9C
:1005D000002001F0004170BDC4F10004203C35DA78
:1005E0000C341BDC04F11404C4F1200500FA05F3FB
:1005F00020FA04F001FA05F240EA020001F000429C
:1006000021F0004110EBD37021FA04F642EB060111
:100610005EEA430E08BF20EAD37070BDC4F10C043B
:10062000C4F1200500FA04F320FA05F001FA04F2FF
:1006300040EA020001F0004110EBD37041F10001EB
:100640005EEA430E08BF20EAD37070BDC4F12005F6
:1006500000FA05F24EEA020E20FA04F301FA05F25E
:1006600043EA020321FA04F001F0004121FA04F206
:1006700020EA020000EBD3705EEA430E08BF20EAD6
:10068000D37070BD94F0000F0FD101F00046400010
:1006900041EB010111F4801F08BF013CF7D041EA92
:1006A000060195F0000F18BF704703F00046520096
:1006B00043EB030313F4801F08BF013DF7D043EA67
:1006C0000603704794EA0C0F0CEA135518BF95EA1D
:1006D0000C0F0CD050EA410618BF52EA4306D1D1A4
:1006E00081EA030101F000414FF0000070BD50EAC3
:1006F000410606BF1046194652EA430619D094EA4D
:100700000C0F02D150EA013613D195EA0C0F05D136
:1007100052EA03361CBF104619460AD181EA03018A
:1007200001F0004141F0FE4141F470014FF0000042
:1007300070BD41F0FE4141F4780170BD70B54FF0DD
:10074000FF0C4CF4E06C1CEA11541DBF1CEA13555D
:1007500094EA0C0F95EA0C0F00F0A7F8A4EB05043F
:1007600081EA030E52EA03354FEA013100F0888036
:100770004FEA03334FF0805545EA131343EA1263FF
:100780004FEA022245EA111545EA10654FEA0026B4
:100790000EF000419D4208BF964244F1FD0404F56D
:1007A000407402D25B084FEA3202B61A65EB0305C9
:1007B0005B084FEA32024FF480104FF4002CB6EB86
:1007C000020E75EB030E22BFB61A754640EA0C0006
:1007D0005B084FEA3202B6EB020E75EB030E22BF46
:1007E000B61A754640EA5C005B084FEA3202B6EB87
:1007F000020E75EB030E22BFB61A754640EA9C0046
:100800005B084FEA3202B6EB020E75EB030E22BF15
:10081000B61A754640EADC0055EA060E18D04FEAD3
:10082000051545EA16754FEA06164FEAC30343EA73
:1008300052734FEAC2025FEA1C1CC0D111F4801F40
:100840000BD141EA00014FF000004FF0004CB6E739
:1008500011F4801F04BF01430020B4F1FD0C88BFD8
:10086000BCF5E06F3FF6AFAEB5EB030C04BFB6EBE3
:10087000020C5FEA500C50F1000041EB045170BDD6
:100880000EF0004E4EEA113114EB5C04C2BFD4EB03
:100890000C0541EA045170BD41F480114FF0000E87
:1008A000013C90E645EA060E8DE60CEA135594EA03
:1008B0000C0F08BF95EA0C0F3FF43BAF94EA0C0F06
:1008C0000AD150EA01347FF434AF95EA0C0F7FF47B
:1008D00025AF104619462CE795EA0C0F06D152EACF
:1008E00003353FF4FDAE1046194622E750EA4106B3
:1008F00018BF52EA43067FF4C5AE50EA41047FF4C4
:100900000DAF52EA43057FF4EBAE12E74A0011D275
:1009100012F5001211D20DD56FF47873B3EB625259
:100920000ED44FEAC12343F0004343EA505323FA65
:1009300002F070474FF00000704750EA013002D1DA
:100940004FF0FF3070474FF00000704780B500AFA8
:1009500000F0ECFA422000F023FB212000F020FB05
:100960000A220221002000F007FA022203210020BF
:1009700000F002FA02220421002000F0FDF9022218
:100980000521002000F0F8F90A220621002000F0DD
:10099000F3F90A220721002000F0EEF900F068F8D0
:1009A0001E2000F0D5F85A2000F07CF8322000F02C
:1009B00079F8FBE780B500AF4FF080431B6903F087
:1009C0000203002B0ED04FF080431B694FF0804292
:1009D00023F002031361254B1B68002B02D0234B2D
:1009E0001B6898474FF080431B6903F00403002BFA
:1009F0000ED04FF080431B694FF0804223F0040378
:100A000013611A4B5B68002B02D0184B5B68984748
:100A10004FF080431B6903F00803002B0ED04FF00A
:100A200080431B694FF0804223F0080313610F4B92
:100A30009B68002B02D00D4B9B6898474FF080437A
:100A40001B6903F01003002B0ED04FF080431B698D
:100A50004FF0804223F010031361044BDB68002B3E
:100A600002D0024BDB68984700BF80BD2800002001
:100A700080B400AF0A4B1B68094A23F010031360CF
:100A8000074B1B68064A23F060031360044B1B6886
:100A9000034A43F00103136000BFBD4680BC7047AA
:100AA0000004004080B582B000AF0346FB71244BC8
:100AB0009B69234A43F070039361214B9B69204A51
:100AC00043F0080393611E4B1B6A1D4A43F0010368
:100AD00013621B4B00229A62194B40F2E732DA6232
:100AE000FB791846FFF796FC4FF00002154BFFF715
:100AF00025FE02460B46104619464FF00002124BE7
:100B0000FFF7F2FC02460B46104619464FF0000272
:100B10000E4BFFF733FB02460B4610461946FFF714
:100B2000F5FE03469AB2064B5A63054B1B68044A0E
:100B300043F00103136000BF0837BD4680BD00BF0E
:100B4000000400400000594000308F400000F03F9A
:100B500080B582B000AF0346FB71244B9B69234AEA
:100B600043F4E0439361214B9B69204A43F40063C3
:100B700093611E4B1B6A1D4A43F0100313621B4B0B
:100B800000229A62194B40F2E732DA62FB7918468A
:100B9000FFF740FC4FF00002154BFFF7CFFD024678
:100BA0000B46104619464FF00002124BFFF79CFC13
:100BB00002460B46104619464FF000020E4BFFF757
:100BC000DDFA02460B4610461946FFF79FFE034624
:100BD0009AB2064B9A63054B1B68044A43F0010323
:100BE000136000BF0837BD4680BD00BF0004004051
:100BF0000000594000308F400000F03F80B500AF4A
:100C0000064B1B68002B07D0054B1B6803F0020343
:100C1000002B024B1B68984700BF80BD6800002076
:100C20000024014080B500AF044B1B68002B02D0AC
:100C3000024B1B68984700BF80BD00BF6C000020BE
:100C400080B500AF044B5B68002B02D0024B5B68A1
:100C5000984700BF80BD00BF6C00002080B500AF8A
:100C6000044B9B68002B02D0024B9B68984700BF47
:100C700080BD00BF6C00002080B500AF044BDB6876
:100C8000002B02D0024BDB68984700BF80BD00BF3D
:100C90006C00002080B500AF044B1B69002B02D014
:100CA000024B1B69984700BF80BD00BF6C0000204D
:100CB00080B500AF144B5B69002B03D0124B5B690E
:100CC00098471EE0104B9B69002B03D00E4B9B698D
:100CD000984716E00C4BDB69002B03D00A4BDB690D
:100CE00098470EE0084B1B6A002B03D0064B1B6A8B
:100CF000984706E0044B5B6A002B02D0024B5B6A0C
:100D0000984700BF80BD00BF6C00002080B500AFD9
:100D1000184B9B6A002B03D0164B9B6A984726E022
:100D2000144BDB6A002B03D0124BDB6A98471EE0A2
:100D3000104B1B6B002B03D00E4B1B6B984716E020
:100D40000C4B5B6B002B03D00A4B5B6B98470EE0A0
:100D5000084B9B6B002B03D0064B9B6B984706E020
:100D6000044BDB6B002B02D0024BDB6B984700BFC0
:100D700080BD00BF6C00002080B485B000AF03468A
:100D8000FB710B46BB7113467B710223FB73FB792E
:100D9000022B7FD0022B00F3B980002B02D0012B55
:100DA0003CD0B3E0BB79072B17D85D4B1B68BA79F1
:100DB00092000F2101FA02F2D2431146584A0B4029
:100DC0001360574B1B687979BA79920001FA02F2E5
:100DD0001146534A0B4313609BE0BB790F2B1AD883
:100DE000BB79083BBB714E4B5B68BA7992000F210F
:100DF00001FA02F2D2431146494A0B405360484B74
:100E00005B687979BA79920001FA02F21146444A94
:100E10000B4353607DE00023FB737AE0BB79072B23
:100E200017D8404B1B68BA7992000F2101FA02F2E1
:100E3000D24311463B4A0B4013603A4B1B68797909
:100E4000BA79920001FA02F21146364A0B43136056
:100E50005FE0BB790F2B1AD8BB79083BBB71314BD4
:100E60005B68BA7992000F2101FA02F2D24311466F
:100E70002C4A0B4053602B4B5B687979BA7992000E
:100E800001FA02F21146274A0B43536041E0002366
:100E9000FB733EE0BB79072B17D8234B1B68BA794D
:100EA00092000F2101FA02F2D24311461E4A0B4072
:100EB00013601D4B1B687979BA79920001FA02F22E
:100EC0001146194A0B43136023E0BB790F2B1AD844
:100ED000BB79083BBB71144B5B68BA7992006FF029
:100EE0000F0101FA02F211460F4A0B4053600E4BFC
:100EF0005B687979BA79920001FA02F211460A4ADE
:100F00000B43536005E00023FB7302E00023FB73F7
:100F100000BFFB7B18461437BD4680BC704700BF3E
:100F200000080140000C01400010014080B400AFF7
:100F30001A4B1B68194A43F00103136000BF174B9B
:100F40001B6803F00203002BF9D0144B5B68134AB3
:100F500023F001035360114B5B68104A23F0F00348
:100F600053600E4B0D4A5B6853600C4B5B680B4A39
:100F700023F4E0635360094B084A5B685360074BF6
:100F80005B68064A23F460535360044B034A5B6872
:100F9000536002231846BD4680BC704700100240D3
:100FA00080B485B000AF0346FB710223FB73FB796D
:100FB0001F2B0AD81A4B5B69FA79012101FA02F258
:100FC0001146174A0B43536123E0FB793F2B0DD8A1
:100FD000FB79203BFB71124BDB69FA79012101FAA5
:100FE00002F211460E4A0B43D36112E0FB795F2BEC
:100FF0000DD8FB79403BFB71094B9B69FA790121C4
:1010000001FA02F21146064A0B43936101E0002304
:10101000FB73FB7B18461437BD4680BC704700BF8E
:101020000010024080B500AF134B00221A70134B22
:101030001B78012B0ED1124B1B68114A23F00203BF
:1010400013600F4B1B680E4A23F0010313600C4B17
:1010500000229A600B4B1B68002B02D0094B1B68C7
:101060009847074B1B681B0CDBB203F00103DAB295
:10107000014B1A7000BF80BDB1000020B0000020FD
:1010800010E000E0AC00002080B400AF234B1B68F0
:101090001B6803F08003002B18D0214B1B78013311
:1010A000DAB21F4B1A701E4B1B781A461D4B9B5C05
:1010B000002B03D11A4B00221A7007E0184B1B7843
:1010C0001A46184B9A5C154B1B685A60134B1B68E9
:1010D0001B6803F02003002B1CD0104B1B685968C1
:1010E000114B1B781A46C9B2104B99540E4B1B7802
:1010F0001A460E4B9B5C232B06D10B4B00221A7019
:101100000B4B01221A7005E0074B1B780133DAB252
:10111000054B1A7000BFBD4680BC70470000002020
:10112000B3000020B8000020B4000020D40000204C
:10113000B200002080B400AF234B5B681B6803F053
:101140008003002B18D0214B1B780133DAB21F4BE0
:101150001A701E4B1B781A461D4B9B5C002B03D14B
:101160001A4B00221A7007E0184B1B781A46184BCE
:101170009A5C154B5B685A60134B5B681B6803F005
:101180002003002B1CD0104B1B685968114B1B7897
:101190001A46C9B2104B99540E4B1B781A460E4B87
:1011A0009B5C232B06D10B4B00221A700B4B0122A8
:1011B0001A7005E0074B1B780133DAB2054B1A7041
:1011C00000BFBD4680BC704700000020B300002077
:1011D000B8000020B4000020D4000020B20000209D
:1011E00080B400AF234B9B681B6803F08003002B87
:1011F00018D0214B1B780133DAB21F4B1A701E4BEB
:101200001B781A461D4B9B5C002B03D11A4B002206
:101210001A7007E0184B1B781A46184B9A5C154B4E
:101220009B685A60134B9B681B6803F02003002BDC
:101230001CD0104B9B685968114B1B781A46C9B2D9
:10124000104B99540E4B1B781A460E4B9B5C232B6C
:1012500006D10B4B00221A700B4B01221A7005E0CD
:10126000074B1B780133DAB2054B1A7000BFBD463D
:1012700080BC704700000020B3000020B8000020B0
:10128000B4000020D4000020B200002080B500AFE0
:10129000FFF75CFB0023184680BD00000D48854623
:1012A000AFF300800C480D490D4A002302E0D458EA
:1012B000C4500433C4188C42F9D30A4A0A4C0023A0
:1012C00001E013600432A242FBD300F011F8FFF7F3
:1012D000DDFFFEE700500020000000200C00002091
:1012E000581300080C000020F0000020FEE700006A
:1012F00070B500260C4D0D4C641BA410A64209D1FC
:1013000000F01AF800260A4D0A4C641BA410A642ED
:1013100005D170BD55F8043B98470136EEE755F806
:10132000043B98470136F2E75013000850130008B9
:101330005013000854130008F8B500BFF8BC08BCEF
:101340009E467047F8B500BFF8BC08BC9E46704783
:04135000550100083B
:04135400310100085B
:0C13580000380140004400400048004004
:040000050800129D40
:00000001FF
