:020000040800F2
:1000000000500020611E0008B11E0008B11E00084B
:10001000B11E0008B11E0008B11E0008000000005B
:10002000000000000000000000000000B11E0008F9
:10003000B11E000800000000B11E0008B91A000837
:10004000B11E0008B11E0008B11E0008B11E000854
:10005000B11E0008B11E0008811700089D17000896
:10006000B9170008D5170008F1170008B11E0008DD
:10007000B11E0008B11E0008B11E0008B11E000824
:10008000B11E0008B11E000855170008B11E000877
:10009000B11E0008B11E0008B11E00080D180008AE
:1000A000B11E0008B11E0008B11E0008D91B0008CF
:1000B000E5150008B11E0008B11E0008B11E0008B9
:1000C000B11E0008B11E0008B11E0008B11E0008D4
:1000D000B11E0008391C0008E91C0008991D000821
:1000E00069180008B11E000800000000B11E0008D9
:1000F000B11E0008B11E0008B11E0008B11E0008A4
:10010000B11E0008B11E0008B11E0008B11E000893
:10011000B11E0008B11E0008B11E0008B11E000883
:10012000B11E0008B11E0008B11E0008B11E000873
:1001300010B5054C237833B9044B13B10448AFF321
:1001400000800123237010BD0C000020000000007F
:10015000FC1E000808B5034B1BB103490348AFF36D
:10016000008008BD0000000010000020FC1E0008F8
:1001700081F0004102E000BF83F0004330B54FEA58
:1001800041044FEA430594EA050F08BF90EA020FC5
:100190001FBF54EA000C55EA020C7FEA645C7FEA58
:1001A000655C00F0E2804FEA5454D4EB5555B8BF7B
:1001B0006D420CDD2C4480EA020281EA030382EAEC
:1001C000000083EA010180EA020281EA0303362D7E
:1001D00088BF30BD11F0004F4FEA01314FF4801C51
:1001E0004CEA113102D0404261EB410113F0004F63
:1001F0004FEA03334CEA133302D0524263EB43031A
:1002000094EA050F00F0A780A4F10104D5F1200EB7
:100210000DDB02FA0EFC22FA05F2801841F1000112
:1002200003FA0EF2801843FA05F359410EE0A5F1E6
:1002300020050EF1200E012A03FA0EFC28BF4CF017
:10024000020C43FA05F3C01851EBE37101F00045CD
:1002500007D54FF0000EDCF1000C7EEB00006EEBDA
:100260000101B1F5801F1BD3B1F5001F0CD3490864
:100270005FEA30004FEA3C0C04F101044FEA4452BB
:1002800012F5800F80F09A80BCF1004F08BF5FEA42
:10029000500C50F1000041EB045141EA050130BD22
:1002A0005FEA4C0C404141EB0101013C28BFB1F534
:1002B000801FE9D291F0000F04BF01460020B1FA7F
:1002C00081F308BF2033A3F10B03B3F120020CDA52
:1002D0000C3208DD02F1140CC2F10C0201FA0CF030
:1002E00021FA02F10CE002F11402D8BFC2F1200C95
:1002F00001FA02F120FA0CFCDCBF41EA0C0190404B
:10030000E41AA2BF01EB0451294330BD6FEA040493
:100310001F3C1CDA0C340EDC04F11404C4F120027E
:1003200020FA04F001FA02F340EA030021FA04F390
:1003300045EA030130BDC4F10C04C4F1200220FAE7
:1003400002F001FA04F340EA0300294630BD21FA25
:1003500004F0294630BD94F0000F83F4801306BFEB
:1003600081F480110134013D4EE77FEA645C18BFDF
:100370007FEA655C29D094EA050F08BF90EA020F76
:1003800005D054EA000C04BF1946104630BD91EA6E
:10039000030F1EBF0021002030BD5FEA545C05D171
:1003A0004000494128BF41F0004130BD14F58004B0
:1003B0003CBF01F5801130BD01F0004545F0FE4124
:1003C00041F470014FF0000030BD7FEA645C1ABF59
:1003D000194610467FEA655C1CBF0B46024650EA90
:1003E000013406BF52EA033591EA030F41F40021BC
:1003F00030BD00BF90F0000F04BF0021704730B542
:100400004FF4806404F132044FF000054FF0000116
:1004100050E700BF90F0000F04BF0021704730B5D7
:100420004FF4806404F1320410F0004548BF4042AC
:100430004FF000013EE700BF42004FEAE2014FEA01
:1004400031014FEA02701FBF12F07F4393F07F4FDC
:1004500081F06051704732F07F4208BF704793F0DF
:100460007F4F04BF41F40021704730B54FF46074F2
:1004700001F0004521F000411CE700BF50EA0102F5
:1004800008BF704730B54FF000050AE050EA01029E
:1004900008BF704730B511F0004502D5404261EB0E
:1004A00041014FF4806404F132045FEA915C3FF44F
:1004B000D8AE4FF003025FEADC0C18BF03325FEAEC
:1004C000DC0C18BF033202EBDC02C2F1200300FA9D
:1004D00003FC20FA02F001FA03FE40EA0E0021FAC2
:1004E00002F11444BDE600BF70B54FF0FF0C4CF4B0
:1004F000E06C1CEA11541DBF1CEA135594EA0C0F62
:1005000095EA0C0F00F0DEF82C4481EA030621EA9C
:100510004C5123EA4C5350EA013518BF52EA0335D7
:1005200041F4801143F4801338D0A0FB02CE4FF089
:100530000005E1FB02E506F00042E0FB03E54FF0B9
:100540000006E1FB03569CF0000F18BF4EF0010EB1
:10055000A4F1FF04B6F5007F64F5407404D25FEAAD
:100560004E0E6D4146EB060642EAC62141EA555160
:100570004FEAC52040EA5E504FEACE2EB4F1FD0CA2
:1005800088BFBCF5E06F1ED8BEF1004F08BF5FEA20
:10059000500E50F1000041EB045170BD06F00046D2
:1005A00046EA010140EA020081EA0301B4EB5C047F
:1005B000C2BFD4EB0C0541EA045170BD41F4801177
:1005C0004FF0000E013C00F3AB8014F1360FDEBF9C
:1005D000002001F0004170BDC4F10004203C35DA78
:1005E0000C341BDC04F11404C4F1200500FA05F3FB
:1005F00020FA04F001FA05F240EA020001F000429C
:1006000021F0004110EBD37021FA04F642EB060111
:100610005EEA430E08BF20EAD37070BDC4F10C043B
:10062000C4F1200500FA04F320FA05F001FA04F2FF
:1006300040EA020001F0004110EBD37041F10001EB
:100640005EEA430E08BF20EAD37070BDC4F12005F6
:1006500000FA05F24EEA020E20FA04F301FA05F25E
:1006600043EA020321FA04F001F0004121FA04F206
:1006700020EA020000EBD3705EEA430E08BF20EAD6
:10068000D37070BD94F0000F0FD101F00046400010
:1006900041EB010111F4801F08BF013CF7D041EA92
:1006A000060195F0000F18BF704703F00046520096
:1006B00043EB030313F4801F08BF013DF7D043EA67
:1006C0000603704794EA0C0F0CEA135518BF95EA1D
:1006D0000C0F0CD050EA410618BF52EA4306D1D1A4
:1006E00081EA030101F000414FF0000070BD50EAC3
:1006F000410606BF1046194652EA430619D094EA4D
:100700000C0F02D150EA013613D195EA0C0F05D136
:1007100052EA03361CBF104619460AD181EA03018A
:1007200001F0004141F0FE4141F470014FF0000042
:1007300070BD41F0FE4141F4780170BD70B54FF0DD
:10074000FF0C4CF4E06C1CEA11541DBF1CEA13555D
:1007500094EA0C0F95EA0C0F00F0A7F8A4EB05043F
:1007600081EA030E52EA03354FEA013100F0888036
:100770004FEA03334FF0805545EA131343EA1263FF
:100780004FEA022245EA111545EA10654FEA0026B4
:100790000EF000419D4208BF964244F1FD0404F56D
:1007A000407402D25B084FEA3202B61A65EB0305C9
:1007B0005B084FEA32024FF480104FF4002CB6EB86
:1007C000020E75EB030E22BFB61A754640EA0C0006
:1007D0005B084FEA3202B6EB020E75EB030E22BF46
:1007E000B61A754640EA5C005B084FEA3202B6EB87
:1007F000020E75EB030E22BFB61A754640EA9C0046
:100800005B084FEA3202B6EB020E75EB030E22BF15
:10081000B61A754640EADC0055EA060E18D04FEAD3
:10082000051545EA16754FEA06164FEAC30343EA73
:1008300052734FEAC2025FEA1C1CC0D111F4801F40
:100840000BD141EA00014FF000004FF0004CB6E739
:1008500011F4801F04BF01430020B4F1FD0C88BFD8
:10086000BCF5E06F3FF6AFAEB5EB030C04BFB6EBE3
:10087000020C5FEA500C50F1000041EB045170BDD6
:100880000EF0004E4EEA113114EB5C04C2BFD4EB03
:100890000C0541EA045170BD41F480114FF0000E87
:1008A000013C90E645EA060E8DE60CEA135594EA03
:1008B0000C0F08BF95EA0C0F3FF43BAF94EA0C0F06
:1008C0000AD150EA01347FF434AF95EA0C0F7FF47B
:1008D00025AF104619462CE795EA0C0F06D152EACF
:1008E00003353FF4FDAE1046194622E750EA4106B3
:1008F00018BF52EA43067FF4C5AE50EA41047FF4C4
:100900000DAF52EA43057FF4EBAE12E74A0011D275
:1009100012F5001211D20DD56FF47873B3EB625259
:100920000ED44FEAC12343F0004343EA505323FA65
:1009300002F070474FF00000704750EA013002D1DA
:100940004FF0FF3070474FF0000070474FEA410210
:10095000B2F1E04324BFB3F5001CDCF1FE5C0DD91D
:1009600001F0004C4FEAC0024CEA5070B2F1004F67
:1009700040EB830008BF20F00100704711F0804F6A
:1009800021D113F13872BCBF01F00040704741F42F
:1009900080114FEA5252C2F11802C2F1200C10FA33
:1009A0000CF320FA02F018BF40F001004FEAC12317
:1009B0004FEAD32303FA0CFC40EA0C0023FA02F3BB
:1009C0004FEA4303CCE77FEA625307D150EA013391
:1009D0001EBF4FF0FE4040F44000704701F0004061
:1009E00040F0FE4040F40000704700BF80F000403F
:1009F00002E000BF81F0004142001FBF5FEA4103F7
:100A000092EA030F7FEA226C7FEA236C6AD04FEAF6
:100A10001262D2EB1363C1BFD2184140484041403B
:100A2000B8BF5B42192B88BF704710F0004F40F4ED
:100A3000000020F07F4018BF404211F0004F41F409
:100A4000000121F07F4118BF494292EA030F3FD0D5
:100A5000A2F1010241FA03FC10EB0C00C3F12003E8
:100A600001FA03F100F0004302D5494260EB400077
:100A7000B0F5000F13D3B0F1807F06D340084FEAE2
:100A8000310102F10102FE2A51D2B1F1004F40EBD7
:100A9000C25008BF20F0010040EA0300704749003F
:100AA00040EB0000013A28BFB0F5000FEDD2B0FADC
:100AB00080FCACF1080CB2EB0C0200FA0CF0AABFFF
:100AC00000EBC25052421843BCBFD040184370479D
:100AD00092F0000F81F4000106BF80F400000132A3
:100AE000013BB5E74FEA41037FEA226C18BF7FEA7A
:100AF000236C21D092EA030F04D092F0000F08BFBC
:100B00000846704790EA010F1CBF0020704712F0A2
:100B10007F4F04D1400028BF40F00040704712F1E1
:100B200000723CBF00F50000704700F0004343F046
:100B3000FE4040F4000070477FEA226216BF08467C
:100B40007FEA23630146420206BF5FEA412390EA3F
:100B5000010F40F4800070474FF0000304E000BF35
:100B600010F0004348BF40425FEA000C08BF7047E6
:100B700043F0964301464FF000001CE050EA0102AA
:100B800008BF70474FF000030AE000BF50EA0102BF
:100B900008BF704711F0004302D5404261EB4101AC
:100BA0005FEA010C02BF84460146002043F0B643D1
:100BB00008BFA3F18053A3F50003BCFA8CF2083AF6
:100BC000A3EBC25310DB01FA02FC634400FA02FCFF
:100BD000C2F12002BCF1004F20FA02F243EB020006
:100BE00008BF20F00100704702F1200201FA02FC68
:100BF000C2F1200250EA4C0021FA02F243EB02005B
:100C000008BF20EADC7070474FF0FF0C1CEAD0529E
:100C10001EBF1CEAD15392EA0C0F93EA0C0F6FD05F
:100C20001A4480EA010C400218BF5FEA41211ED03D
:100C30004FF0006343EA501043EA5111A0FB013129
:100C40000CF00040B1F5000F3EBF490041EAD371FE
:100C50005B0040EA010062F17F02FD2A1DD8B3F17A
:100C6000004F40EBC25008BF20F00100704790F0E9
:100C7000000F0CF0004C08BF49024CEA502040EA3B
:100C800051207F3AC2BFD2F1FF0340EAC250704701
:100C900040F400004FF00003013A5DDC12F1190F3F
:100CA000DCBF00F000407047C2F10002410021FAB1
:100CB00002F1C2F1200200FA02FC5FEA310040F1C9
:100CC000000053EA4C0308BF20EADC70704792F042
:100CD000000F00F0004C02BF400010F4000F013A7A
:100CE000F9D040EA0C0093F0000F01F0004C02BF75
:100CF000490011F4000F013BF9D041EA0C018FE7E4
:100D00000CEAD15392EA0C0F18BF93EA0C0F0AD0E9
:100D100030F0004C18BF31F0004CD8D180EA01000F
:100D200000F00040704790F0000F17BF90F0004FA8
:100D3000084691F0000F91F0004F14D092EA0C0F8A
:100D400001D142020FD193EA0C0F03D14B0218BF1D
:100D5000084608D180EA010000F0004040F0FE4063
:100D600040F40000704740F0FE4040F440007047FF
:100D70004FF0FF0C1CEAD0521EBF1CEAD15392EA7E
:100D80000C0F93EA0C0F69D0A2EB030280EA010C6E
:100D900049024FEA402037D04FF0805343EA111107
:100DA00043EA10130CF000408B4238BF5B0042F165
:100DB0007D024FF4000C8B4224BF5B1A40EA0C000A
:100DC000B3EB510F24BFA3EB510340EA5C00B3EB3C
:100DD000910F24BFA3EB910340EA9C00B3EBD10F2A
:100DE00024BFA3EBD10340EADC001B0118BF5FEA7C
:100DF0001C1CE0D1FD2A3FF650AF8B4240EBC250A5
:100E000008BF20F0010070470CF0004C4CEA502065
:100E10007F32C2BFD2F1FF0340EAC250704740F4B4
:100E200000004FF00003013A37E792F0000F00F0A6
:100E3000004C02BF400010F4000F013AF9D040EA24
:100E40000C0093F0000F01F0004C02BF490011F4B8
:100E5000000F013BF9D041EA0C0195E70CEAD153B0
:100E600092EA0C0F08D142027FF47DAF93EA0C0F97
:100E70007FF470AF084676E793EA0C0F04D14B027B
:100E80003FF44CAF08466EE730F0004C18BF31F02D
:100E9000004CCAD130F000427FF45CAF31F0004327
:100EA0007FF43CAF5FE700BF4FF0FF3C06E000BFC0
:100EB0004FF0010C02E000BF4FF0010C4DF804CDE3
:100EC0004FEA40024FEA41037FEA226C18BF7FEAF3
:100ED000236C11D001B052EA530C18BF90EA010FF5
:100EE00058BFB2EB030088BFC81738BF6FEAE17084
:100EF00018BF40F0010070477FEA226C02D15FEA20
:100F0000402C05D17FEA236CE4D15FEA412CE1D08B
:100F10005DF8040B704700BF844608466146FFE752
:100F20000FB5FFF7C9FF002848BF10F1000F0FBD34
:100F30004DF808EDFFF7F4FF0CBF012000205DF82D
:100F400008FB00BF4DF808EDFFF7EAFF34BF0120B2
:100F500000205DF808FB00BF4DF808EDFFF7E0FF4B
:100F600094BF012000205DF808FB00BF4DF808ED9C
:100F7000FFF7D2FF94BF012000205DF808FB00BFFF
:100F80004DF808EDFFF7C8FF34BF012000205DF8E1
:100F900008FB00BF42000ED2B2F1FE4F0BD34FF060
:100FA0009E03B3EB126209D44FEA002343F00043DF
:100FB00023FA02F070474FF00000704712F1610F02
:100FC00001D1420202D14FF0FF3070474FF00000D4
:100FD000704700BF80B500AF1A4800F08BFA1A497D
:100FE0001A4800F075FA03461846FFF7D3FF034688
:100FF0009AB2144B5A801649164800F069FA034613
:101000001846FFF7C7FF03469AB20E4B9A80124963
:10101000124800F05DFA03461846FFF7BBFF03468F
:101020009AB2084BDA800E490E4800F051FA034696
:101030001846FFF7AFFF03469AB2024B1A8100BF72
:1010400080BD00BF300000200000F0420000704270
:101050000000964300007043000052430000164316
:101060000000F0410000A54380B582B000AF00F061
:1010700013F90346FB7100F032F90346BB71FB79AB
:10108000002B0AD1BB79002B07D100F0E9F800F062
:10109000BDF85A2000F004FB3BE0FB79012B17D18F
:1010A000BB79002B14D100F0E9F800F0BDF800F096
:1010B000ADF8462000F0F4FAFB79002B26D1BB797D
:1010C000002B23D100F0A2F85A2000F0E9FA1DE02D
:1010D000BB79012B17D1FB79002B14D100F0CEF88E
:1010E00000F0B0F800F092F8462000F0D9FAFB7951
:1010F000002B0DD1BB79002B0AD100F087F85A20C4
:1011000000F0CEFA04E000F0B9F802E000BF00E021
:1011100000BF00BF0837BD4680BD000080B582B06B
:1011200000AF00F0B9F80346FB7100F0D8F80346B1
:10113000BB71334B1B881A46314BDB881344DA0FE3
:1011400013445B10BB80BB881D2B25D82D4B1B780F
:10115000002B21D12C4B5B78002B1AD1294B01227B
:101160001A7000F061F800F051F8502000F098FA81
:10117000FB79012B3DD1BB79012B3AD100F062F80C
:1011800000F044F83C2000F08BFA1E4B00221A704D
:101190002FE000F073F82CE0BB881D2B25D8194BED
:1011A0001B78002B21D1184B9B78002B1AD1154BA3
:1011B00002221A7000F046F800F028F8502000F0E3
:1011C0006FFABB79012B16D1FB79012B13D100F0FB
:1011D0002BF800F01BF83C2000F062FA094B0022CB
:1011E0001A7008E000F04AF805E0064B00221A7079
:1011F00002E000BF00E000BF00BF0837BD4680BD71
:10120000300000203A0000202800002080B500AF08
:1012100000220721012000F05DFB012206210120B0
:1012200000F058FB00BF80BD80B500AF0022072151
:10123000002000F04FFB01220421002000F04AFBB7
:1012400000BF80BD80B500AF00220421002000F067
:1012500041FB01220721002000F03CFB00BF80BDC4
:1012600080B500AF00220421002000F033FB0022F3
:101270000721002000F02EFB00BF80BD80B500AF2D
:1012800000220721012000F025FB00220621012079
:1012900000F020FB00BF80BD80B582B000AF01230D
:1012A000FB71FB79BB71BB1D1A460B21002000F0BE
:1012B00095FB0346022B02D00223FB710AE0BB79A7
:1012C000012B02D10023FB7104E0BB79002B01D17B
:1012D0000123FB71BB7918460837BD4680BD80B538
:1012E00082B000AF0123FB71FB79BB71BB1D1A46B5
:1012F0000C21002000F072FB0346022B02D00223D7
:10130000FB710AE0BB79012B02D10023FB7104E0E1
:10131000BB79002B01D10123FB71FB7918460837FB
:10132000BD4680BD80B584B000AF786039600023D1
:10133000FB730023BB7300237B7300233B730023E9
:10134000FB725B4B1B78002B40F0AD80012000F05E
:1013500051FC0346FB7304E0012000F04BFC034604
:10136000FB73FB7B3E2BF7D1012000F043FC0346CF
:101370007B73012000F03EFC0346BB73012000F0AC
:1013800039FC0346FB72012000F034FC03463B733A
:10139000FB7B3E2BDAD1FB7A002BD7D03B7B002B9B
:1013A000D4D0FB7B3E2BD1D13B7B3E2B08D1FB7AAB
:1013B0003E2B05D1BB7B3E2B02D17B7B3E2BC5D088
:1013C000BB7BDB017A7B5208D2B213431846FFF78E
:1013D00021F84FF00002374BFFF7B0F902460B46F9
:1013E00010461946FFF7B2FA0346334A13603B7BB7
:1013F0001A02FB7A13431846FFF70CF84FF000026D
:101400002E4BFFF79BF902460B4610461946FFF795
:101410009DFA03462A4A13604FF000017868FFF7EF
:10142000A5FD0346002B2AD026493868FFF794FD16
:101430000346002B23D0204B1B6819467868FFF722
:101440008BFD0346002B08D01B4B1B6819463868E0
:10145000FFF78CFD0346002B25D1174B1B681A495B
:101460001846FFF783FD0346002B08D0124B1B687C
:1014700016491846FFF766FD0346002B13D10E4BA5
:101480001B6819467868FFF767FD0346002B08D0F4
:10149000094B1B6819463868FFF768FD0346002BA7
:1014A00000D153E700BF00BF1037BD4680BD00BF6D
:1014B00044000020000050403C000020000010408C
:1014C000400000200000344200809D430000B443EF
:1014D00080B582B000AF7860396039687868FFF70E
:1014E00021FF034B1B6818460837BD4680BD00BF6F
:1014F0004000002080B588B000AF78600223FB7701
:101500007B68002B60D00023FB810023BB8101227C
:101510000021012000F0DEF90A2000F0A7FA0022E5
:101520000021012000F0D6F900BF2B4B1B695B089E
:1015300003F00103002BF8D007F10E03184600F06A
:1015400019FB00F0F7FA012000F026FB00BF224B48
:101550001B695B0803F00103002BF8D007F10C03B3
:10156000184600F007FB002000F016FB00F0F2FA2E
:1015700000F0D4FABB891A46FB89D31ABB614FF03D
:1015800082437B61B869FFF7E7FA03467969184639
:10159000FFF73AFB034611491846FFF7E9FB0346FC
:1015A0003B614FF080413869FFF7E2FB03460C498D
:1015B0001846FFF729FB03461846FFF7EBFC0346E6
:1015C0009AB27B681A8001E00123FB77FB7F184603
:1015D0002037BD4680BD00BF002C01400024744967
:1015E00000FC054780B500AF4FF080431B6903F056
:1015F0000203002B0ED04FF080431B694FF0804256
:1016000023F002031361254B1B68002B02D0234BF0
:101610001B6898474FF080431B6903F00403002BBD
:101620000ED04FF080431B694FF0804223F004033B
:1016300013611A4B5B68002B02D0184B5B6898470C
:101640004FF080431B6903F00803002B0ED04FF0CE
:1016500080431B694FF0804223F0080313610F4B56
:101660009B68002B02D00D4B9B6898474FF080433E
:101670001B6903F01003002B0ED04FF080431B6951
:101680004FF0804223F010031361044BDB68002B02
:1016900002D0024BDB68984700BF80BD48000020A5
:1016A00080B582B000AF0346FB71264B9B69254A8B
:1016B00043F070039361234B9B69224A43F0080374
:1016C0009361204B1B6A1F4A43F001031362FB79AD
:1016D000C3F16403FB711B4B00229A62194B40F269
:1016E000E732DA62FB791846FEF794FE4FF000020B
:1016F000154BFFF723F802460B46104619464FF0EC
:101700000002124BFEF7F0FE02460B461046194649
:101710004FF000020E4BFEF731FD02460B4610461D
:101720001946FFF7F3F803469AB2064B5A63054B86
:101730001B68044A43F00103136000BF0837BD462D
:1017400080BD00BF000400400000594000308F40C1
:101750000000F03F80B500AF074B1B68002B08D09E
:10176000064B1B685B0803F00103002B024B1B6850
:10177000984700BF80BD00BF8800002000240140C2
:1017800080B500AF044B1B68002B02D0024B1B68D6
:10179000984700BF80BD00BF8C00002080B500AF1F
:1017A000044B5B68002B02D0024B5B68984700BF7C
:1017B00080BD00BF8C00002080B500AF044B9B684B
:1017C000002B02D0024B9B68984700BF80BD00BF32
:1017D0008C00002080B500AF044BDB68002B02D0EA
:1017E000024BDB68984700BF80BD00BF8C00002023
:1017F00080B500AF044B1B69002B02D0024B1B6964
:10180000984700BF80BD00BF8C00002080B500AFAE
:10181000144B5B69002B03D0124B5B6998471EE0A9
:10182000104B9B69002B03D00E4B9B69984716E029
:101830000C4BDB69002B03D00A4BDB6998470EE0A9
:10184000084B1B6A002B03D0064B1B6A984706E027
:10185000044B5B6A002B02D0024B5B6A984700BFC7
:1018600080BD00BF8C00002080B500AF184B9B6A84
:10187000002B03D0164B9B6A984726E0144BDB6A7B
:10188000002B03D0124BDB6A98471EE0104B1B6BFA
:10189000002B03D00E4B1B6B984716E00C4B5B6B79
:1018A000002B03D00A4B5B6B98470EE0084B9B6BF9
:1018B000002B03D0064B9B6B984706E0044BDB6B79
:1018C000002B02D0024BDB6B984700BF80BD00BFEE
:1018D0008C00002080B485B000AF0346FB710B463E
:1018E000BB7113467B710223FB73FB79022B46D03D
:1018F000022B64DC002B02D0012B20D05FE07B792F
:10190000012B0AD1324BDB68BA79012101FA02F2CC
:1019100011462F4A0B43D36054E07B79002B0BD147
:101920002B4BDB68BA79012101FA02F2D24311464E
:10193000274A0B40D36045E00023FB7342E07B79EC
:10194000012B0AD1234BDB68BA79012101FA02F29B
:101950001146204A0B43D36034E07B79002B0BD136
:101960001C4BDB68BA79012101FA02F2D24311461D
:10197000184A0B40D36025E00023FB7322E07B79FB
:10198000012B0AD1144BDB68BA79012101FA02F26A
:101990001146114A0B43D36014E07B79002B0BD125
:1019A0000D4BDB68BA79012101FA02F2D2431146EC
:1019B000094A0B40D36005E00023FB7302E00023DB
:1019C000FB7300BFFB7B18461437BD4680BC7047D5
:1019D00000080140000C01400010014080B485B0B7
:1019E00000AF03463A60FB710B46BB710223FB73E9
:1019F000FB79022B1ED0022B28DC002B02D0012BFE
:101A00000CD023E0164B9A68BB7922FA03F3DBB2C1
:101A100003F00103DAB23B681A701AE0114B9A68BE
:101A2000BB7922FA03F3DBB203F00103DAB23B68BD
:101A30001A700EE00C4B9A68BB7922FA03F3DBB202
:101A400003F00103DAB23B681A7002E00023FB7373
:101A500000BFFB7B18461437BD4680BC704700BFF3
:101A600000080140000C01400010014080B483B028
:101A700000AF78600F4A7B6853600E4B1B680D4ABD
:101A800043F00103136000BF0A4B1B681B0C03F0FB
:101A90000103002BF8D0074B1B68064A23F0010313
:101AA0001360044B00229A60022318460C37BD468F
:101AB00080BC704710E000E080B500AF134B0022FF
:101AC0001A70134B1B78012B0ED1124B1B68114A55
:101AD00023F0020313600F4B1B680E4A23F001032F
:101AE00013600C4B00229A600B4B1B68002B02D03A
:101AF000094B1B689847074B1B681B0CDBB203F0B4
:101B00000103DAB2014B1A7000BF80BDDB00002078
:101B1000D000002010E000E0CC00002080B400AF36
:101B2000034B00225A6202231846BD4680BC704710
:101B3000002C014080B400AF054B1B68044A43F001
:101B40000103136002231846BD4680BC704700BFE6
:101B5000002C014080B400AF054B1B68044A23F001
:101B60000103136002231846BD4680BC704700BFC6
:101B7000002C014080B483B000AF7860054B5B6BF4
:101B80009AB27B681A80022318460C37BD4680BC87
:101B9000704700BF002C014080B483B000AF034603
:101BA000FB71FB79002B06D10A4B1B6A094A23F013
:101BB0000203136208E0FB79012B05D1054B1B6A78
:101BC000044A43F002031362022318460C37BD4651
:101BD00080BC7047002C014080B500AF044B1B68EF
:101BE000002B02D0024B1B68984700BF80BD00BF8E
:101BF000D400002080B485B000AF0346FB71FB79B0
:101C0000022B10D800BFFB790A4A52F823301B6818
:101C10005B0903F00103002BF5D0FB79054A52F86C
:101C200023305B68FB73FB7B18461437BD4680BCD2
:101C3000704700BF0000002080B400AF244B1B6839
:101C40001B68DB0903F00103002B18D0214B1B7824
:101C50000133DAB21F4B1A701E4B1B781A461E4B0B
:101C60009B5C002B03D11B4B00221A7007E0194B21
:101C70001B781A46184B9A5C154B1B685A60144B1C
:101C80001B681B685B0903F00103002B1CD0104B81
:101C90001B685968114B1B781A46C9B2104B9954EE
:101CA0000E4B1B781A460E4B9B5C232B06D10B4B1D
:101CB00000221A700B4B01221A7005E0074B1B78AB
:101CC0000133DAB2054B1A7000BFBD4680BC7047C5
:101CD00000000020D9000020F8000020DA000020D9
:101CE000DC000020D800002080B400AF244B5B68EB
:101CF0001B68DB0903F00103002B18D0214B1B7874
:101D00000133DAB21F4B1A701E4B1B781A461E4B5A
:101D10009B5C002B03D11B4B00221A7007E0194B70
:101D20001B781A46184B9A5C154B5B685A60144B2B
:101D30005B681B685B0903F00103002B1CD0104B90
:101D40001B685968114B1B781A46C9B2104B99543D
:101D50000E4B1B781A460E4B9B5C232B06D10B4B6C
:101D600000221A700B4B01221A7005E0074B1B78FA
:101D70000133DAB2054B1A7000BFBD4680BC704714
:101D800000000020D9000020F8000020DA00002028
:101D9000DC000020D800002080B400AF244B9B68FA
:101DA0001B68DB0903F00103002B18D0214B1B78C3
:101DB0000133DAB21F4B1A701E4B1B781A461E4BAA
:101DC0009B5C002B03D11B4B00221A7007E0194BC0
:101DD0001B781A46184B9A5C154B9B685A60144B3B
:101DE0009B681B685B0903F00103002B1CD0104BA0
:101DF0009B685968114B1B781A46C9B2104B99540D
:101E00000E4B1B781A460E4B9B5C232B06D10B4BBB
:101E100000221A700B4B01221A7005E0074B1B7849
:101E20000133DAB2054B1A7000BFBD4680BC704763
:101E300000000020D9000020F8000020DA00002077
:101E4000DC000020D800002080B500AFFFF7C2F80A
:101E5000FFF70AF9FFF762F90023184680BD00007A
:101E60000D488546AFF300800C480D490D4A00230C
:101E700002E0D458C4500433C4188C42F9D30A4A3F
:101E80000A4C002301E013600432A242FBD300F0AD
:101E900011F8FFF7D9FFFEE70050002000000020F6
:101EA0000C0000201C1F00080C0000201401002062
:101EB000FEE7000070B500260C4D0D4C641BA4100D
:101EC000A64209D100F01AF800260A4D0A4C641BFC
:101ED000A410A64205D170BD55F8043B98470136C1
:101EE000EEE755F8043B98470136F2E7141F000867
:101EF000141F0008141F0008181F0008F8B500BFC1
:101F0000F8BC08BC9E467047F8B500BFF8BC08BCDA
:041F10009E46704732
:041F1400550100086B
:041F1800310100088B
:0C1F1C0000380140004400400048004034
:0400000508001E6170
:00000001FF
