:020000040800F2
:100000000050002075050008C5050008C50500085A
:10001000C5050008C5050008C5050008000000006A
:10002000000000000000000000000000C5050008FE
:10003000C505000800000000C5050008F102000821
:10004000C5050008C5050008C5050008C505000868
:10005000C5050008C50500089D010008B901000894
:10006000D5010008F10100080D020008C5050008CF
:10007000C5050008C5050008C5050008C505000838
:10008000C5050008C505000871010008C505000880
:10009000C5050008C5050008C505000829020008B7
:1000A000C5050008C5050008C5050008C505000808
:1000B000C5050008C5050008C5050008C5050008F8
:1000C000C5050008C5050008C5050008C5050008E8
:1000D000C50500085503000805040008B50400081C
:1000E00085020008C505000800000000C5050008DD
:1000F000C5050008C5050008C5050008C5050008B8
:10010000C5050008C5050008C5050008C5050008A7
:10011000C5050008C5050008C5050008C505000897
:10012000C5050008C5050008C5050008C505000887
:1001300010B5054C237833B9044B13B10448AFF321
:1001400000800123237010BD0C000020000000007F
:100150001006000808B5034B1BB103490348AFF371
:10016000008008BD000000001000002010060008FC
:1001700080B500AF074B1B68002B08D0064B1B68EF
:100180005B0803F00103002B024B1B68984700BF7C
:1001900080BD00BF280000200024014080B500AFD2
:1001A000044B1B68002B02D0024B1B68984700BF12
:1001B00080BD00BF2C00002080B500AF044B5B6801
:1001C000002B02D0024B5B68984700BF80BD00BF88
:1001D0002C00002080B500AF044B9B68002B02D0A0
:1001E000024B9B68984700BF80BD00BF2C000020D9
:1001F00080B500AF044BDB68002B02D0024BDB68FC
:10020000984700BF80BD00BF2C00002080B500AF24
:10021000044B1B69002B02D0024B1B69984700BF9F
:1002200080BD00BF2C00002080B500AF144B5B697F
:10023000002B03D0124B5B6998471EE0104B9B6963
:10024000002B03D00E4B9B69984716E00C4BDB69E3
:10025000002B03D00A4BDB6998470EE0084B1B6A62
:10026000002B03D0064B1B6A984706E0044B5B6AE1
:10027000002B02D0024B5B6A984700BF80BD00BFD5
:100280002C00002080B500AF184B9B6A002B03D0D8
:10029000164B9B6A984726E0144BDB6A002B03D071
:1002A000124BDB6A98471EE0104B1B6B002B03D0F0
:1002B0000E4B1B6B984716E00C4B5B6B002B03D06F
:1002C0000A4B5B6B98470EE0084B9B6B002B03D0EF
:1002D000064B9B6B984706E0044BDB6B002B02D070
:1002E000024BDB6B984700BF80BD00BF2C00002095
:1002F00080B500AF134B00221A70134B1B78012BF3
:100300000ED1124B1B68114A23F0020313600F4BEE
:100310001B680E4A23F0010313600C4B00229A6005
:100320000B4B1B68002B02D0094B1B689847074BEF
:100330001B681B0CDBB203F00103DAB2014B1A702D
:1003400000BF80BD740000207000002010E000E0BD
:100350006C00002080B400AF244B1B681B68DB09D5
:1003600003F00103002B18D0214B1B780133DAB2C4
:100370001F4B1A701E4B1B781A461E4B9B5C002BA2
:1003800003D11B4B00221A7007E0194B1B781A4649
:10039000184B9A5C154B1B685A60144B1B681B6802
:1003A0005B0903F00103002B1CD0104B1B6859683C
:1003B000114B1B781A46C9B2104B99540E4B1B783F
:1003C0001A460E4B9B5C232B06D10B4B00221A7056
:1003D0000B4B01221A7005E0074B1B780133DAB290
:1003E000054B1A7000BFBD4680BC7047000000205E
:1003F000720000209400002073000020780000208C
:100400007100002080B400AF244B5B681B68DB09DF
:1004100003F00103002B18D0214B1B780133DAB213
:100420001F4B1A701E4B1B781A461E4B9B5C002BF1
:1004300003D11B4B00221A7007E0194B1B781A4698
:10044000184B9A5C154B5B685A60144B5B681B68D1
:100450005B0903F00103002B1CD0104B1B6859688B
:10046000114B1B781A46C9B2104B99540E4B1B788E
:100470001A460E4B9B5C232B06D10B4B00221A70A5
:100480000B4B01221A7005E0074B1B780133DAB2DF
:10049000054B1A7000BFBD4680BC704700000020AD
:1004A00072000020940000207300002078000020DB
:1004B0007100002080B400AF244B9B681B68DB09EF
:1004C00003F00103002B18D0214B1B780133DAB263
:1004D0001F4B1A701E4B1B781A461E4B9B5C002B41
:1004E00003D11B4B00221A7007E0194B1B781A46E8
:1004F000184B9A5C154B9B685A60144B9B681B68A1
:100500005B0903F00103002B1CD0104B9B6859685A
:10051000114B1B781A46C9B2104B99540E4B1B78DD
:100520001A460E4B9B5C232B06D10B4B00221A70F4
:100530000B4B01221A7005E0074B1B780133DAB22E
:10054000054B1A7000BFBD4680BC704700000020FC
:10055000720000209400002073000020780000202A
:100560007100002080B400AF00231846BD4680BC57
:10057000704700000D488546AFF300800C480D49D8
:100580000D4A002302E0D458C4500433C4188C42EE
:10059000F9D30A4A0A4C002301E013600432A24254
:1005A000FBD300F011F8FFF7DDFFFEE7005000205D
:1005B000000000200C000020300600080C00002085
:1005C000B0000020FEE7000070B500260C4D0D4C79
:1005D000641BA410A64209D100F01AF800260A4DA7
:1005E0000A4C641BA410A64205D170BD55F8043B0B
:1005F00098470136EEE755F8043B98470136F2E795
:100600002806000828060008280600082C0600080E
:10061000F8B500BFF8BC08BC9E467047F8B500BFEF
:08062000F8BC08BC9E467047BF
:040628005501000870
:04062C003101000890
:0C06300000380140004400400048004039
:040000050800057575
:00000001FF
