:020000040800F2
:1000000000500020B514000805150008051500086B
:10001000051500080515000805150008000000007A
:1000200000000000000000000000000005150008AE
:10003000051500080000000005150008151200084D
:100040000515000805150008051500080515000828
:1000500005150008051500082D0C0008490C0008BE
:10006000650C0008810C00089D0C000805150008AF
:1000700005150008051500080515000805150008F8
:100080000515000805150008010C000805150008F5
:10009000051500080515000805150008B90C00082D
:1000A0000515000805150008051500087912000857
:1000B000910700080515000805150008051500083A
:1000C00005150008051500080515000805150008A8
:1000D000051500089512000845130008F5130008DF
:1000E000150D0008051500080000000005150008A2
:1000F0000515000805150008051500080515000878
:100100000515000805150008051500080515000867
:100110000515000805150008051500080515000857
:100120000515000805150008051500080515000847
:1001300010B5054C237833B9044B13B10448AFF321
:1001400000800123237010BD4C000020000000003F
:100150005015000808B5034B1BB103490348AFF322
:10016000008008BD0000000050000020501500086D
:1001700080B586B000AF00F061FF422000F0A6FF1E
:10018000492000F0A3FF00F06FF800F0E1FF00232A
:100190003B7406237B740023BB7407F110031846DD
:1001A00000F062FA224A07F10C0312681146198026
:1001B0000233120C1A7007F10C03184600F0A8FA6B
:1001C0001C4A3B1D92E80300186004331980023377
:1001D0000A0C1A703B1D184600F038FB07F1170394
:1001E000184600F05BFA012000F0E8FF07F1160363
:1001F000184600F0A6FA0021002000F047F90E484A
:1002000000F087F9FB7D184600F0CCF900210120B1
:1002100000F03CF9094800F07CF9BB7D184600F07D
:10022000C1F94FF4FA7000F0C9FF00F013FAD5E7F6
:10023000781500087C15000868150008701500087E
:1002400080B500AF01220221002000F073FE0120E2
:1002500000F0B4FF00220221002000F06BFE1E20FF
:1002600000F0ACFF00BF80BD80B500AF02220121CD
:10027000002000F085FD02220221002000F080FD18
:1002800002220321002000F07BFD02220421002035
:1002900000F076FD02220521002000F071FD02220F
:1002A0000621002000F06CFD1E2000F087FF0320D7
:1002B00000F01FF8052000F081FF032000F019F87E
:1002C000642000F055FF032000F013F8022000F036
:1002D00010F8282000F00DF80C2000F00AF800F0CB
:1002E0002FF900F0B7F90021002000F0CFF800BF8F
:1002F00080BD80B582B000AF0346FB71012000F0E5
:100300005DFF00220121002000F014FEFB791B0993
:10031000DBB203F00103DBB21A460321002000F038
:1003200009FEFB795B09DBB203F00103DBB21A467D
:100330000421002000F0FEFDFB799B09DBB203F0F5
:100340000103DBB21A460521002000F0F3FDFB7922
:10035000DB09DBB21A460621002000F0EBFDFFF7B7
:100360006FFFFB7903F00103DBB21A460321002083
:1003700000F0E0FDFB795B08DBB203F00103DBB2C8
:100380001A460421002000F0D5FDFB799B08DBB262
:1003900003F00103DBB21A460521002000F0CAFD7C
:1003A000FB79DB08DBB203F00103DBB21A4606215E
:1003B000002000F0BFFDFFF743FF00BF0837BD4638
:1003C00080BD80B582B000AF0346FB7101220121E0
:1003D000002000F0AFFDFB791B09DBB203F0010345
:1003E000DBB21A460321002000F0A4FDFB795B0973
:1003F000DBB203F00103DBB21A460421002000F057
:1004000099FDFB799B09DBB203F00103DBB21A46CD
:100410000521002000F08EFDFB79DB09DBB21A46D6
:100420000621002000F086FDFFF70AFFFB7903F0AC
:100430000103DBB21A460321002000F07BFDFB79AB
:100440005B08DBB203F00103DBB21A460421002093
:1004500000F070FDFB799B08DBB203F00103DBB217
:100460001A460521002000F065FDFB79DB08DBB2B0
:1004700003F00103DBB21A460621002000F05AFD0A
:10048000FFF7DEFE00BF0837BD4680BD80B582B0F5
:1004900000AF03460A46FB711346BB71FB79032B81
:1004A00026D801A252F823F0B9040008C7040008B6
:1004B000D5040008E3040008BB79803BDBB2184692
:1004C000FFF717FF14E0BB79403BDBB21846FFF79C
:1004D00010FF0DE0BB796C3BDBB21846FFF709FF5C
:1004E00006E0BB792C3BDBB21846FFF702FF00BFEA
:1004F00000BF0837BD4680BD80B582B000AF03465F
:10050000FB71FB791846FFF75CFF00BF0837BD465B
:1005100080BD80B582B000AF786007E07B681B7853
:100520001846FFF7E9FF7B6801337B607B681B7827
:10053000002BF3D100BF00BF0837BD4680BD0000CF
:1005400080B582B000AF0023FB710023BB71002394
:10055000BB711DE0BB790833DBB2DB00DBB21846B0
:10056000FFF7C7FE0023FB710CE0BA79FB790C4959
:10057000D2000A4413441B781846FFF7BDFFFB79ED
:100580000133FB71FB79072BEFD9BB790133BB71C9
:10059000BB79072BDED900BF00BF0837BD4680BD41
:1005A0000000002080B586B000AF78600023FB60BB
:1005B00007F1100300221A609A800023FB757B6804
:1005C000002B03D13020FFF7FCFE3DE07B68002BC1
:1005D00024DA2D20FFF7F5FE7B685B427B601DE08F
:1005E0007A681B4B83FB02139910D317C91A0B4669
:1005F0009B000B445B00D11AFB7DCAB207F11801C6
:100600000B4403F80C2C7B68114A82FB03129210F6
:10061000DB17D31A7B60FB7D0133FB757B68002BF6
:10062000DEDC0EE0FB7D013B07F11802134413F8FA
:100630000C3C3033DBB21846FFF7C3FEFB7D013BB9
:10064000FB75FB7D002BEDD100BF1837BD4680BD8B
:100650006766666680B500AF0120FFF74AFE052099
:1006600000F0ACFD00BF80BD80B584B000AF786005
:100670000223FB737B68002B08D00022002100209E
:1006800000F07EFB786800F09FF901E00123FB7326
:10069000FB7B18461037BD4680BD000080B584B096
:1006A00000AF78600223FB7307F10A03184600F0DD
:1006B00073FA7B89184600F019F80346BB817B6802
:1006C000002B09D0BB89084AA2FB0323DB089BB29D
:1006D000DAB27B681A7001E00123FB73FB7B1846DA
:1006E0001037BD4680BD00BFCDCCCCCC80B485B02A
:1006F00000AF0346FB80FB8840F6E44202FB03F3B5
:100700001B0BFB81FB8918461437BD4680BC704724
:1007100080B584B000AF78600223FB737B68002B48
:1007200008D000220721002000F02AFB786800F0A2
:100730004BF901E00123FB73FB7B18461037BD46E4
:1007400080BD80B584B000AF78600223FB737B6806
:10075000002B15D007F10C03184600F01DFABB89D9
:100760001A46642303FB02F3002B01DA03F6FF733E
:100770001B139BB2BB81BB89DAB27B681A7001E0A4
:100780000123FB73FB7B18461037BD4680BD00007C
:1007900080B500AF4FF080431B6903F00203002BCC
:1007A0000ED04FF080431B694FF0804223F00203CC
:1007B0001361254B1B68002B02D0234B1B68984705
:1007C0004FF080431B6903F00403002B0ED04FF061
:1007D00080431B694FF0804223F0040313611A4BDE
:1007E0005B68002B02D0184B5B6898474FF0804342
:1007F0001B6903F00803002B0ED04FF080431B69E8
:100800004FF0804223F0080313610F4B9B68002BCD
:1008100002D00D4B9B6898474FF080431B6903F053
:100820001003002B0ED04FF080431B694FF0804225
:1008300023F010031361044BDB68002B02D0024B42
:10084000DB68984700BF80BD6800002080B485B099
:1008500000AF78600223FB737B68002B00F0AA8056
:10086000584BDB6A574A23F47003D362554BDB6A5B
:100870007A68D27812051146524A0B43D362514B23
:100880009B6B504A23F4403393634E4B9B6B7A68C7
:100890005279120511464B4A0B439363494B9B68AF
:1008A000484A23F460239360464B9B687A68127928
:1008B00052041146434A0B4393607B681B79072B14
:1008C00005D0404B9B683F4A43F4801393603D4BF7
:1008D0009B683C4A23F4E04393603A4B9B687A68F8
:1008E000927912031146374A0B4393607B689B79D8
:1008F000072B05D0334B9B68324A43F40043936087
:100900007B681B78002B02D0012B07D00DE02D4B0C
:100910009B682C4A23F00203936008E0294B9B68F4
:10092000284A43F00203936001E00023FB737B68D5
:100930005B78042B02D0052B07D00DE0214B5B68C0
:10094000204A23F48073536008E01E4B5B681D4A05
:1009500043F48073536001E00023FB737B689B7852
:10096000022B02D0032B07D00DE0164B9B68154AD3
:1009700023F40063936008E0124B9B68114A43F430
:100980000063936001E00023FB730E4B9B680D4AEC
:1009900043F0010393600B4B9B680A4A43F0040346
:1009A000936000BF074B9B689B0803F00103002B7B
:1009B000F8D101E00123FB73FB7B18461437BD46D9
:1009C00080BC70470024014080B485B000AF7860DF
:1009D0000223FB737B68002B00F0D2807B681B78BE
:1009E000112B00F2CA807B689B78102B00F2C58027
:1009F0007B689B78052B1FD8664B5A6B7B689B786E
:100A000019460B469B000B446FF01F0101FA03F3DC
:100A1000604913404B635F4B5A6B7B681B781846E9
:100A20007B689B7819460B469B000B4400FA03F346
:100A3000584913434B6352E07B689B780B2B25D8B6
:100A40007B689B78063BDAB27B689A70514B1A6BD5
:100A50007B689B7819460B469B000B446FF01F0187
:100A600001FA03F34B4913400B634A4B1A6B7B6843
:100A70001B7818467B689B7819460B469B000B44F5
:100A800000FA03F3434913430B6328E07B689B7828
:100A90000F2B24D87B689B780C3BDAB27B689A706A
:100AA0003C4BDA6A7B689B7819460B469B000B44EB
:100AB0006FF01F0101FA03F336491340CB62354B47
:100AC000DA6A7B681B7818467B689B7819460B4668
:100AD0009B000B4400FA03F32E491343CB627B685F
:100AE0001B78092B1FD82B4B1A697B681B7819467A
:100AF0000B465B000B44072101FA03F3DB43254956
:100B000013400B61234B1A697B685B7818467B683E
:100B10001B7819460B465B000B4400FA03F31D4992
:100B200013430B612FE07B681B78112B2BD87B685C
:100B30001B780A3BDAB27B681A70164BDA687B685E
:100B40001B7819460B465B000B44072101FA03F39F
:100B5000DB4310491340CB600E4BDA687B685B784F
:100B600018467B681B7819460B465B000B4400FA5D
:100B700003F308491343CB6005E00023FB7303E054
:100B80000123FB7300E000BFFB7B18461437BD4612
:100B900080BC70470024014080B485B000AF78600D
:100BA0000223FB737B68002B1FD0144B9B68134AF6
:100BB00043F001039360114B9B68104A43F4800398
:100BC000936000BF0D4B1B685B0803F00103002B13
:100BD000F8D00A4B00221A60084BDB6C9AB27B6893
:100BE0001A80064B0022DA6401E00123FB73FB7BD1
:100BF00018461437BD4680BC704700BF0024014032
:100C000080B500AF074B1B68002B08D0064B1B6854
:100C10005B0803F00103002B024B1B68984700BFE1
:100C200080BD00BFA80000200024014080B500AFB7
:100C3000044B1B68002B02D0024B1B68984700BF77
:100C400080BD00BFAC00002080B500AF044B5B68E6
:100C5000002B02D0024B5B68984700BF80BD00BFED
:100C6000AC00002080B500AF044B9B68002B02D085
:100C7000024B9B68984700BF80BD00BFAC000020BE
:100C800080B500AF044BDB68002B02D0024BDB6861
:100C9000984700BF80BD00BFAC00002080B500AF0A
:100CA000044B1B69002B02D0024B1B69984700BF05
:100CB00080BD00BFAC00002080B500AF144B5B6965
:100CC000002B03D0124B5B6998471EE0104B9B69C9
:100CD000002B03D00E4B9B69984716E00C4BDB6949
:100CE000002B03D00A4BDB6998470EE0084B1B6AC8
:100CF000002B03D0064B1B6A984706E0044B5B6A47
:100D0000002B02D0024B5B6A984700BF80BD00BF3A
:100D1000AC00002080B500AF184B9B6A002B03D0BD
:100D2000164B9B6A984726E0144BDB6A002B03D0D6
:100D3000124BDB6A98471EE0104B1B6B002B03D055
:100D40000E4B1B6B984716E00C4B5B6B002B03D0D4
:100D50000A4B5B6B98470EE0084B9B6B002B03D054
:100D6000064B9B6B984706E0044BDB6B002B02D0D5
:100D7000024BDB6B984700BF80BD00BFAC0000207A
:100D800080B485B000AF0346FB710B46BB711346C0
:100D90007B710223FB73FB79022B7FD0022B00F3C4
:100DA000B980002B02D0012B3CD0B3E0BB79072BDC
:100DB00017D85D4B1B68BA7992000F2101FA02F235
:100DC000D2431146584A0B401360574B1B68797940
:100DD000BA79920001FA02F21146534A0B431360AA
:100DE0009BE0BB790F2B1AD8BB79083BBB714E4BEC
:100DF0005B68BA7992000F2101FA02F2D2431146E0
:100E0000494A0B405360484B5B687979BA79920044
:100E100001FA02F21146444A0B4353607DE000237D
:100E2000FB737AE0BB79072B17D8404B1B68BA7964
:100E300092000F2101FA02F2D24311463B4A0B40C5
:100E400013603A4B1B687979BA79920001FA02F281
:100E50001146364A0B4313605FE0BB790F2B1AD85B
:100E6000BB79083BBB71314B5B68BA7992000F21AB
:100E700001FA02F2D24311462C4A0B4053602B4B2D
:100E80005B687979BA79920001FA02F21146274A31
:100E90000B43536041E00023FB733EE0BB79072B1B
:100EA00017D8234B1B68BA7992000F2101FA02F27E
:100EB000D24311461E4A0B4013601D4B1B687979C3
:100EC000BA79920001FA02F21146194A0B431360F3
:100ED00023E0BB790F2B1AD8BB79083BBB71144BAD
:100EE0005B68BA7992006FF00F0101FA02F21146C5
:100EF0000F4A0B4053600E4B5B687979BA799200C8
:100F000001FA02F211460A4A0B43536005E000233E
:100F1000FB7302E00023FB7300BFFB7B1846143712
:100F2000BD4680BC704700BF00080140000C014076
:100F30000010014080B485B000AF0346FB710B4642
:100F4000BB7113467B710223FB73FB79022B46D0E6
:100F5000022B64DC002B02D0012B20D05FE07B79D8
:100F6000012B0AD1324BDB68BA79012101FA02F276
:100F700011462F4A0B43D36054E07B79002B0BD1F1
:100F80002B4BDB68BA79012101FA02F2D2431146F8
:100F9000274A0B40D36045E00023FB7342E07B7996
:100FA000012B0AD1234BDB68BA79012101FA02F245
:100FB0001146204A0B43D36034E07B79002B0BD1E0
:100FC0001C4BDB68BA79012101FA02F2D2431146C7
:100FD000184A0B40D36025E00023FB7322E07B79A5
:100FE000012B0AD1144BDB68BA79012101FA02F214
:100FF0001146114A0B43D36014E07B79002B0BD1CF
:101000000D4BDB68BA79012101FA02F2D243114695
:10101000094A0B40D36005E00023FB7302E0002384
:10102000FB7300BFFB7B18461437BD4680BC70477E
:1010300000080140000C01400010014080B400AFE6
:10104000214B1B68204A43F00103136000BF1E4B75
:101050001B685B0803F00103002BF8D01A4B5B6898
:10106000194A23F001035360174B5B68164A23F0BB
:10107000F0035360144B144A5B685360124B5B6877
:10108000114A23F4E06353600F4B0F4A5B685360CF
:101090000D4B5B680C4A23F4605353600A4B0A4AB9
:1010A0005B685360084B5B68074A23F44043536016
:1010B000054B5B68044A43F44043536002231846DF
:1010C000BD4680BC704700BF0010024080B485B0B0
:1010D00000AF0346FB710223FB73FB791F2B0AD879
:1010E0001A4B5B69FA79012101FA02F21146174A9B
:1010F0000B43536123E0FB793F2B0DD8FB79203B59
:10110000FB71124BDB69FA79012101FA02F21146F7
:101110000E4A0B43D36112E0FB795F2B0DD8FB79AC
:10112000403BFB71094B9B69FA79012101FA02F2FC
:101130001146064A0B43936101E00023FB73FB7BDE
:1011400018461437BD4680BC704700BF00100240EF
:1011500080B400AF054B1B68044A23F004031360FE
:1011600002231846BD4680BC704700BF10E000E077
:1011700080B483B000AF78600F4A7B6853600E4B39
:101180001B680D4A43F00103136000BF0A4B1B6844
:101190001B0C03F00103002BF8D0074B1B68064A19
:1011A00023F001031360044B00229A6002231846C7
:1011B0000C37BD4680BC704710E000E080B483B0BF
:1011C00000AF0346FB80FB884FF47A7202FB03F208
:1011D0000F4B5A600E4B1B680D4A43F0010313601E
:1011E00000BF0B4B1B681B0C03F00103002BF8D056
:1011F000074B1B68064A23F001031360044B0022CF
:101200009A60022318460C37BD4680BC704700BF69
:1012100010E000E080B500AF134B00221A70134BB2
:101220001B78012B0ED1124B1B68114A23F00203CD
:1012300013600F4B1B680E4A23F0010313600C4B25
:1012400000229A600B4B1B68002B02D0094B1B68D5
:101250009847074B1B681B0CDBB203F00103DAB2A3
:10126000014B1A7000BF80BDFB000020F000002081
:1012700010E000E0EC00002080B500AF044B1B68DC
:10128000002B02D0024B1B68984700BF80BD00BFF7
:10129000F400002080B400AF244B1B681B68DB09FE
:1012A00003F00103002B18D0214B1B780133DAB275
:1012B0001F4B1A701E4B1B781A461E4B9B5C002B53
:1012C00003D11B4B00221A7007E0194B1B781A46FA
:1012D000184B9A5C154B1B685A60144B1B681B68B3
:1012E0005B0903F00103002B1CD0104B1B685968ED
:1012F000114B1B781A46C9B2104B99540E4B1B78F0
:101300001A460E4B9B5C232B06D10B4B00221A7006
:101310000B4B01221A7005E0074B1B780133DAB240
:10132000054B1A7000BFBD4680BC704740000020CE
:10133000F900002018010020FA000020FC00002025
:10134000F800002080B400AF244B5B681B68DB0909
:1013500003F00103002B18D0214B1B780133DAB2C4
:101360001F4B1A701E4B1B781A461E4B9B5C002BA2
:1013700003D11B4B00221A7007E0194B1B781A4649
:10138000184B9A5C154B5B685A60144B5B681B6882
:101390005B0903F00103002B1CD0104B1B6859683C
:1013A000114B1B781A46C9B2104B99540E4B1B783F
:1013B0001A460E4B9B5C232B06D10B4B00221A7056
:1013C0000B4B01221A7005E0074B1B780133DAB290
:1013D000054B1A7000BFBD4680BC7047400000201E
:1013E000F900002018010020FA000020FC00002075
:1013F000F800002080B400AF244B9B681B68DB0919
:1014000003F00103002B18D0214B1B780133DAB213
:101410001F4B1A701E4B1B781A461E4B9B5C002BF1
:1014200003D11B4B00221A7007E0194B1B781A4698
:10143000184B9A5C154B9B685A60144B9B681B6851
:101440005B0903F00103002B1CD0104B9B6859680B
:10145000114B1B781A46C9B2104B99540E4B1B788E
:101460001A460E4B9B5C232B06D10B4B00221A70A5
:101470000B4B01221A7005E0074B1B780133DAB2DF
:10148000054B1A7000BFBD4680BC7047400000206D
:10149000F900002018010020FA000020FC000020C4
:1014A000F800002080B500AFFEF762FE002318466A
:1014B00080BD00000D488546AFF300800C480D4903
:1014C0000D4A002302E0D458C4500433C4188C429F
:1014D000F9D30A4A0A4C002301E013600432A24205
:1014E000FBD300F011F8FFF7DDFFFEE7005000200E
:1014F000000000204C0000208C1500084C0000204B
:1015000034010020FEE7000070B500260C4D0D4CA4
:10151000641BA410A64209D100F01AF800260A4D57
:101520000A4C641BA410A64205D170BD55F8043BBB
:1015300098470136EEE755F8043B98470136F2E745
:101540008415000884150008841500088815000813
:10155000F8B500BFF8BC08BC9E467047F8B500BFA0
:08156000F8BC08BC9E46704770
:1015680074656D70203D00007261696E203D000059
:0C15780007060100010502010700070042
:041584005501000805
:041588003101000825
:10158C000A1F1F1F1F0E0400041F11111111111F20
:10159C00041F111111111F1F041F1111111F1F1FE7
:1015AC00041F11111F1F1F1F041F111F1F1F1F1F9F
:1015BC00041F1F1F1F1F1F1F00000101050515150C
:0C15CC000038014000440040004800408E
:04000005080014B526
:00000001FF
