:020000040800F2
:1000000000500020DD1300082D1400082D140008F6
:100010002D1400082D1400082D1400080000000005
:100020000000000000000000000000002D14000887
:100030002D140008000000002D14000859110008BC
:100040002D1400082D1400082D1400082D1400088C
:100050002D1400082D140008710B00088D0B0008EA
:10006000A90B0008C50B0008E10B00082D140008BF
:100070002D1400082D1400082D1400082D1400085C
:100080002D1400082D140008450B00082D1400083D
:100090002D1400082D1400082D140008FD0B000875
:1000A0002D1400082D1400082D1400082D1400082C
:1000B0002D1400082D1400082D1400082D1400081C
:1000C0002D1400082D1400082D1400082D1400080C
:1000D0002D140008BD1100086D1200081D13000842
:1000E000590C00082D140008000000002D14000811
:1000F0002D1400082D1400082D1400082D140008DC
:100100002D1400082D1400082D1400082D140008CB
:100110002D1400082D1400082D1400082D140008BB
:100120002D1400082D1400082D1400082D140008AB
:1001300010B5054C237833B9044B13B10448AFF321
:1001400000800123237010BD4C000020000000003F
:100150007814000808B5034B1BB103490348AFF3FB
:10016000008008BD00000000500000207814000846
:1001700080B586B000AF00F003FF422000F048FFDA
:10018000492000F045FF00F06FF800F083FF0023E6
:100190003B7406237B740023BB7407F110031846DD
:1001A00000F062FA224A07F10C0312681146198026
:1001B0000233120C1A7007F10C03184600F0A8FA6B
:1001C0001C4A3B1D92E80300186004331980023377
:1001D0000A0C1A703B1D184600F0DAFA07F11703F3
:1001E000184600F05BFA012000F08AFF07F11603C1
:1001F000184600F0A6FA0021002000F047F90E484A
:1002000000F087F9FB7D184600F0CCF900210120B1
:1002100000F03CF9094800F07CF9BB7D184600F07D
:10022000C1F94FF4FA7000F06BFF00F013FAD5E754
:10023000A0140008A41400089014000898140008E2
:1002400080B500AF01220221002000F015FE012040
:1002500000F056FF00220221002000F00DFE1E20BB
:1002600000F04EFF00BF80BD80B500AF022201212B
:10027000002000F027FD02220221002000F022FDD4
:1002800002220321002000F01DFD02220421002093
:1002900000F018FD02220521002000F013FD0222CB
:1002A0000621002000F00EFD1E2000F029FF032093
:1002B00000F01FF8052000F023FF032000F019F8DC
:1002C000642000F0F7FE032000F013F8022000F095
:1002D00010F8282000F00DF80C2000F00AF800F0CB
:1002E0002FF900F0B7F90021002000F0CFF800BF8F
:1002F00080BD80B582B000AF0346FB71012000F0E5
:10030000FFFE00220121002000F0B6FDFB791B0951
:10031000DBB203F00103DBB21A460321002000F038
:10032000ABFDFB795B09DBB203F00103DBB21A46DC
:100330000421002000F0A0FDFB799B09DBB203F053
:100340000103DBB21A460521002000F095FDFB7980
:10035000DB09DBB21A460621002000F08DFDFFF715
:100360006FFFFB7903F00103DBB21A460321002083
:1003700000F082FDFB795B08DBB203F00103DBB226
:100380001A460421002000F077FDFB799B08DBB2C0
:1003900003F00103DBB21A460521002000F06CFDDA
:1003A000FB79DB08DBB203F00103DBB21A4606215E
:1003B000002000F061FDFFF743FF00BF0837BD4696
:1003C00080BD80B582B000AF0346FB7101220121E0
:1003D000002000F051FDFB791B09DBB203F00103A3
:1003E000DBB21A460321002000F046FDFB795B09D1
:1003F000DBB203F00103DBB21A460421002000F057
:100400003BFDFB799B09DBB203F00103DBB21A462B
:100410000521002000F030FDFB79DB09DBB21A4634
:100420000621002000F028FDFFF70AFFFB7903F00A
:100430000103DBB21A460321002000F01DFDFB7909
:100440005B08DBB203F00103DBB21A460421002093
:1004500000F012FDFB799B08DBB203F00103DBB275
:100460001A460521002000F007FDFB79DB08DBB20E
:1004700003F00103DBB21A460621002000F0FCFC69
:10048000FFF7DEFE00BF0837BD4680BD80B582B0F5
:1004900000AF03460A46FB711346BB71FB79032B81
:1004A00026D801A252F823F0B9040008C7040008B6
:1004B000D5040008E3040008BB79803BDBB2184692
:1004C000FFF717FF14E0BB79403BDBB21846FFF79C
:1004D00010FF0DE0BB796C3BDBB21846FFF709FF5C
:1004E00006E0BB792C3BDBB21846FFF702FF00BFEA
:1004F00000BF0837BD4680BD80B582B000AF03465F
:10050000FB71FB791846FFF75CFF00BF0837BD465B
:1005100080BD80B582B000AF786007E07B681B7853
:100520001846FFF7E9FF7B6801337B607B681B7827
:10053000002BF3D100BF00BF0837BD4680BD0000CF
:1005400080B582B000AF0023FB710023BB71002394
:10055000BB711DE0BB790833DBB2DB00DBB21846B0
:10056000FFF7C7FE0023FB710CE0BA79FB790C4959
:10057000D2000A4413441B781846FFF7BDFFFB79ED
:100580000133FB71FB79072BEFD9BB790133BB71C9
:10059000BB79072BDED900BF00BF0837BD4680BD41
:1005A0000000002080B586B000AF78600023FB60BB
:1005B00007F1100300221A609A800023FB757B6804
:1005C000002B03D13020FFF7FCFE3DE07B68002BC1
:1005D00024DA2D20FFF7F5FE7B685B427B601DE08F
:1005E0007A681B4B83FB02139910D317C91A0B4669
:1005F0009B000B445B00D11AFB7DCAB207F11801C6
:100600000B4403F80C2C7B68114A82FB03129210F6
:10061000DB17D31A7B60FB7D0133FB757B68002BF6
:10062000DEDC0EE0FB7D013B07F11802134413F8FA
:100630000C3C3033DBB21846FFF7C3FEFB7D013BB9
:10064000FB75FB7D002BEDD100BF1837BD4680BD8B
:100650006766666680B500AF0120FFF74AFE052099
:1006600000F04EFD00BF80BD80B584B000AF786063
:100670000223FB737B68002B08D00022002100209E
:1006800000F020FB786800F041F901E00123FB73E2
:10069000FB7B18461037BD4680BD000080B584B096
:1006A00000AF78600223FB7307F10A03184600F0DD
:1006B00015FA7B89184600F019F80346BB817B6860
:1006C000002B09D0BB89084AA2FB0323DB089BB29D
:1006D000DAB27B681A7001E00123FB73FB7B1846DA
:1006E0001037BD4680BD00BFCDCCCCCC80B485B02A
:1006F00000AF0346FB80FB8840F6E44202FB03F3B5
:100700001B0BFB81FB8918461437BD4680BC704724
:1007100080B584B000AF78600223FB737B68002B48
:1007200008D000220721002000F0CCFA786800F001
:10073000EDF801E00123FB73FB7B18461037BD4643
:1007400080BD80B584B000AF78600223FB737B6806
:10075000002B15D007F10C03184600F0BFF9BB8938
:100760001A46642303FB02F3002B01DA03F6FF733E
:100770001B139BB2BB81BB89DAB27B681A7001E0A4
:100780000123FB73FB7B18461037BD4680BD00007C
:1007900080B485B000AF78600223FB737B68002BC8
:1007A00000F0AA80584BDB6A574A23F47003D362E7
:1007B000554BDB6A7A68D27812051146524A0B43D0
:1007C000D362514B9B6B504A23F4403393634E4B9F
:1007D0009B6B7A685279120511464B4A0B4393631F
:1007E000494B9B68484A23F460239360464B9B68BF
:1007F0007A68127952041146434A0B4393607B682E
:100800001B79072B05D0404B9B683F4A43F480136C
:1008100093603D4B9B683C4A23F4E04393603A4B22
:100820009B687A68927912031146374A0B439360AA
:100830007B689B79072B05D0334B9B68324A43F486
:10084000004393607B681B78002B02D0012B07D0FC
:100850000DE02D4B9B682C4A23F00203936008E0C7
:10086000294B9B68284A43F00203936001E0002370
:10087000FB737B685B78042B02D0052B07D00DE05F
:10088000214B5B68204A23F48073536008E01E4BC1
:100890005B681D4A43F48073536001E00023FB73DF
:1008A0007B689B78022B02D0032B07D00DE0164B00
:1008B0009B68154A23F40063936008E0124B9B6821
:1008C000114A43F40063936001E00023FB730E4B75
:1008D0009B680D4A43F0010393600B4B9B680A4AE7
:1008E00043F00403936000BF074B9B689B0803F031
:1008F0000103002BF8D101E00123FB73FB7B1846B9
:100900001437BD4680BC70470024014080B485B0D8
:1009100000AF78600223FB737B68002B00F0D2806D
:100920007B681B78112B00F2CA807B689B78102BA8
:1009300000F2C5807B689B78052B1FD8664B5A6BED
:100940007B689B7819460B469B000B446FF01F0198
:1009500001FA03F3604913404B635F4B5A6B7B68AA
:100960001B7818467B689B7819460B469B000B4406
:1009700000FA03F3584913434B6352E07B689B78BA
:100980000B2B25D87B689B78063BDAB27B689A7084
:10099000514B1A6B7B689B7819460B469B000B44A6
:1009A0006FF01F0101FA03F34B4913400B634A4BED
:1009B0001A6B7B681B7818467B689B7819460B4638
:1009C0009B000B4400FA03F3434913430B6328E0F5
:1009D0007B689B780F2B24D87B689B780C3BDAB222
:1009E0007B689A703C4BDA6A7B689B7819460B46A9
:1009F0009B000B446FF01F0101FA03F336491340CB
:100A0000CB62354BDA6A7B681B7818467B689B782B
:100A100019460B469B000B4400FA03F32E4913437F
:100A2000CB627B681B78092B1FD82B4B1A697B681C
:100A30001B7819460B465B000B44072101FA03F3B0
:100A4000DB43254913400B61234B1A697B685B78B4
:100A500018467B681B7819460B465B000B4400FA6E
:100A600003F31D4913430B612FE07B681B78112BA7
:100A70002BD87B681B780A3BDAB27B681A70164B5E
:100A8000DA687B681B7819460B465B000B4407212C
:100A900001FA03F3DB4310491340CB600E4BDA68D5
:100AA0007B685B7818467B681B7819460B465B00B1
:100AB0000B4400FA03F308491343CB6005E000231D
:100AC000FB7303E00123FB7300E000BFFB7B1846D0
:100AD0001437BD4680BC70470024014080B485B007
:100AE00000AF78600223FB737B68002B1FD0144B90
:100AF0009B68134A43F001039360114B9B68104AB3
:100B000043F48003936000BF0D4B1B685B0803F048
:100B10000103002BF8D00A4B00221A60084BDB6C53
:100B20009AB27B681A80064B0022DA6401E0012346
:100B3000FB73FB7B18461437BD4680BC704700BF73
:100B40000024014080B500AF074B1B68002B08D084
:100B5000064B1B685B0803F00103002B024B1B686C
:100B6000984700BF80BD00BF6800002000240140FE
:100B700080B500AF044B1B68002B02D0024B1B68F2
:100B8000984700BF80BD00BF6C00002080B500AF5B
:100B9000044B5B68002B02D0024B5B68984700BF98
:100BA00080BD00BF6C00002080B500AF044B9B6887
:100BB000002B02D0024B9B68984700BF80BD00BF4E
:100BC0006C00002080B500AF044BDB68002B02D026
:100BD000024BDB68984700BF80BD00BF6C0000205F
:100BE00080B500AF044B1B69002B02D0024B1B6980
:100BF000984700BF80BD00BF6C00002080B500AFEB
:100C0000144B5B69002B03D0124B5B6998471EE0C5
:100C1000104B9B69002B03D00E4B9B69984716E045
:100C20000C4BDB69002B03D00A4BDB6998470EE0C5
:100C3000084B1B6A002B03D0064B1B6A984706E043
:100C4000044B5B6A002B02D0024B5B6A984700BFE3
:100C500080BD00BF6C00002080B500AF184B9B6AC0
:100C6000002B03D0164B9B6A984726E0144BDB6A97
:100C7000002B03D0124BDB6A98471EE0104B1B6B16
:100C8000002B03D00E4B1B6B984716E00C4B5B6B95
:100C9000002B03D00A4B5B6B98470EE0084B9B6B15
:100CA000002B03D0064B9B6B984706E0044BDB6B95
:100CB000002B02D0024BDB6B984700BF80BD00BF0A
:100CC0006C00002080B485B000AF0346FB710B467A
:100CD000BB7113467B710223FB73FB79022B7FD020
:100CE000022B00F3B980002B02D0012B3CD0B3E0E3
:100CF000BB79072B17D85D4B1B68BA7992000F217F
:100D000001FA02F2D2431146584A0B401360574B86
:100D10001B687979BA79920001FA02F21146534AB6
:100D20000B4313609BE0BB790F2B1AD8BB79083BB0
:100D3000BB714E4B5B68BA7992000F2101FA02F247
:100D4000D2431146494A0B405360484B5B6879795E
:100D5000BA79920001FA02F21146444A0B435360F9
:100D60007DE00023FB737AE0BB79072B17D8404B5B
:100D70001B68BA7992000F2101FA02F2D2431146A0
:100D80003B4A0B4013603A4B1B687979BA79920061
:100D900001FA02F21146364A0B4313605FE0BB7959
:100DA0000F2B1AD8BB79083BBB71314B5B68BA7902
:100DB00092000F2101FA02F2D24311462C4A0B4055
:100DC00053602B4B5B687979BA79920001FA02F291
:100DD0001146274A0B43536041E00023FB733EE07A
:100DE000BB79072B17D8234B1B68BA7992000F21C8
:100DF00001FA02F2D24311461E4A0B4013601D4B0A
:100E00001B687979BA79920001FA02F21146194AFF
:100E10000B43136023E0BB790F2B1AD8BB79083B37
:100E2000BB71144B5B68BA7992006FF00F0101FA45
:100E300002F211460F4A0B4053600E4B5B68797902
:100E4000BA79920001FA02F211460A4A0B43536042
:100E500005E00023FB7302E00023FB7300BFFB7B74
:100E600018461437BD4680BC704700BF00080140DB
:100E7000000C01400010014080B485B000AF034673
:100E8000FB710B46BB7113467B710223FB73FB792D
:100E9000022B46D0022B64DC002B02D0012B20D089
:100EA0005FE07B79012B0AD1324BDB68BA790121F3
:100EB00001FA02F211462F4A0B43D36054E07B79CA
:100EC000002B0BD12B4BDB68BA79012101FA02F21E
:100ED000D2431146274A0B40D36045E00023FB7301
:100EE00042E07B79012B0AD1234BDB68BA790121DF
:100EF00001FA02F21146204A0B43D36034E07B79B9
:100F0000002B0BD11C4BDB68BA79012101FA02F2EC
:100F1000D2431146184A0B40D36025E00023FB73EF
:100F200022E07B79012B0AD1144BDB68BA790121CD
:100F300001FA02F21146114A0B43D36014E07B79A7
:100F4000002B0BD10D4BDB68BA79012101FA02F2BB
:100F5000D2431146094A0B40D36005E00023FB73DE
:100F600002E00023FB7300BFFB7B18461437BD462D
:100F700080BC704700080140000C01400010014097
:100F800080B400AF214B1B68204A43F0010313607B
:100F900000BF1E4B1B685B0803F00103002BF8D059
:100FA0001A4B5B68194A23F001035360174B5B68C7
:100FB000164A23F0F0035360144B144A5B685360E5
:100FC000124B5B68114A23F4E06353600F4B0F4AE6
:100FD0005B6853600D4B5B680C4A23F460535360AD
:100FE0000A4B0A4A5B685360084B5B68074A23F464
:100FF00040435360054B5B68044A43F440435360ED
:1010000002231846BD4680BC704700BF0010024056
:1010100080B485B000AF0346FB710223FB73FB79FC
:101020001F2B0AD81A4B5B69FA79012101FA02F2E7
:101030001146174A0B43536123E0FB793F2B0DD830
:10104000FB79203BFB71124BDB69FA79012101FA34
:1010500002F211460E4A0B43D36112E0FB795F2B7B
:101060000DD8FB79403BFB71094B9B69FA79012153
:1010700001FA02F21146064A0B43936101E0002394
:10108000FB73FB7B18461437BD4680BC704700BF1E
:101090000010024080B400AF054B1B68044A23F0E7
:1010A0000403136002231846BD4680BC704700BF8E
:1010B00010E000E080B483B000AF78600F4A7B6836
:1010C00053600E4B1B680D4A43F00103136000BFD1
:1010D0000A4B1B681B0C03F00103002BF8D0074BD5
:1010E0001B68064A23F001031360044B00229A6038
:1010F000022318460C37BD4680BC704710E000E064
:1011000080B483B000AF0346FB80FB884FF47A7253
:1011100002FB03F20F4B5A600E4B1B680D4A43F063
:101120000103136000BF0B4B1B681B0C03F0010392
:10113000002BF8D0074B1B68064A23F0010313600D
:10114000044B00229A60022318460C37BD4680BC2F
:10115000704700BF10E000E080B500AF134B0022E5
:101160001A70134B1B78012B0ED1124B1B68114ABE
:1011700023F0020313600F4B1B680E4A23F0010398
:1011800013600C4B00229A600B4B1B68002B02D0A3
:10119000094B1B689847074B1B681B0CDBB203F01D
:1011A0000103DAB2014B1A7000BF80BDB400002009
:1011B000B000002010E000E0AC00002080B400AFE0
:1011C000244B1B681B68DB0903F00103002B18D0BC
:1011D000214B1B780133DAB21F4B1A701E4B1B7860
:1011E0001A461E4B9B5C002B03D11B4B00221A702E
:1011F00007E0194B1B781A46184B9A5C154B1B6875
:101200005A60144B1B681B685B0903F00103002B39
:101210001CD0104B1B685968114B1B781A46C9B279
:10122000104B99540E4B1B781A460E4B9B5C232B8C
:1012300006D10B4B00221A700B4B01221A7005E0ED
:10124000074B1B780133DAB2054B1A7000BFBD465D
:1012500080BC704740000020B2000020D400002075
:10126000B3000020B8000020B100002080B400AF1F
:10127000244B5B681B68DB0903F00103002B18D0CB
:10128000214B1B780133DAB21F4B1A701E4B1B78AF
:101290001A461E4B9B5C002B03D11B4B00221A707D
:1012A00007E0194B1B781A46184B9A5C154B5B6884
:1012B0005A60144B5B681B685B0903F00103002B49
:1012C0001CD0104B1B685968114B1B781A46C9B2C9
:1012D000104B99540E4B1B781A460E4B9B5C232BDC
:1012E00006D10B4B00221A700B4B01221A7005E03D
:1012F000074B1B780133DAB2054B1A7000BFBD46AD
:1013000080BC704740000020B2000020D4000020C4
:10131000B3000020B8000020B100002080B400AF6E
:10132000244B9B681B68DB0903F00103002B18D0DA
:10133000214B1B780133DAB21F4B1A701E4B1B78FE
:101340001A461E4B9B5C002B03D11B4B00221A70CC
:1013500007E0194B1B781A46184B9A5C154B9B6893
:101360005A60144B9B681B685B0903F00103002B58
:101370001CD0104B9B685968114B1B781A46C9B298
:10138000104B99540E4B1B781A460E4B9B5C232B2B
:1013900006D10B4B00221A700B4B01221A7005E08C
:1013A000074B1B780133DAB2054B1A7000BFBD46FC
:1013B00080BC704740000020B2000020D400002014
:1013C000B3000020B8000020B100002080B500AFBD
:1013D000FEF7CEFE0023184680BD00000D4885466E
:1013E000AFF300800C480D490D4A002302E0D458A9
:1013F000C4500433C4188C42F9D30A4A0A4C00235F
:1014000001E013600432A242FBD300F011F8FFF7B1
:10141000DDFFFEE700500020000000204C0000200F
:10142000B41400084C000020F0000020FEE700008B
:1014300070B500260C4D0D4C641BA410A64209D1BA
:1014400000F01AF800260A4D0A4C641BA410A642AC
:1014500005D170BD55F8043B98470136EEE755F8C5
:10146000043B98470136F2E7AC140008AC140008BE
:10147000AC140008B0140008F8B500BFF8BC08BCF4
:101480009E467047F8B500BFF8BC08BC9E46704742
:1014900074656D70203D00007261696E203D000032
:0C14A0000706010001050201070007001B
:0414AC0055010008DE
:0414B00031010008FE
:1014B4000A1F1F1F1F0E0400041F11111111111FF9
:1014C400041F111111111F1F041F1111111F1F1FC0
:1014D400041F11111F1F1F1F041F111F1F1F1F1F78
:1014E400041F1F1F1F1F1F1F0000010105051515E5
:0C14F40000380140004400400048004067
:04000005080013DDFF
:00000001FF
